:040000006F0010324B
:10000400000000000000000090000020900000208C
:10001400A9BDF9F5440A002000000000000000001A
:10002400440A0020900000200000000000000000AE
:10003400900000200000000090000020000000005C
:1000440090000020900000209000002090000020EC
:1000540090000020940A002090000020000000007E
:1000640090000020900000209000002090000020CC
:10007400BC00002090000020900000209000002090
:1000840090000020900000209000002090000020AC
:1000940001A00000130101FFB717004003A7870365
:1000A4002326E10083A687030327C100E398E6FE25
:1000B4000325C1001301010167800000B717004048
:1000C400130700032388E7021307100023A2E18229
:1000D40067800000732700801377870093878182ED
:1000E400630C07007327008023A0E70003A7070021
:1000F400137777FF731007801300000013000000CC
:1001040037170040930670052300D704930680FA3E
:100114002300D70413000000130000008346B70433
:1001240093F6F60DA305D70423000704F3260080F5
:1001340003A70700137787003367D700731007807E
:1001440023A007001300000013000000137705022A
:10015400630207187327008013778700630C070076
:100164007327008023A0E70003A70700137777FF16
:1001740073100780130000001300000037170040BD
:10018400930670052300D704930680FA2300D7044E
:100194001300000013000000B70614001375F501E6
:1001A4003365D5002324A7001300000013000000CA
:1001B400130000001300000023000704F32600804E
:1001C40003A70700137787003367D70073100780EE
:1001D40023A0070013000000130000007327008011
:1001E40013778700630C07007327008023A0E700C0
:1001F40003A70700137777FF73100780130000002D
:100204001300000037170040930670052300D7043D
:10021400930680FA2300D7041300000013000000A3
:100224001300000013000000B72600401306100559
:10023400A383C68023000704F326008003A70700D6
:10024400137787003367D7007310078023A0070054
:100254001300000013000000732700801377870049
:10026400630C07007327008023A0E70003A707009F
:10027400137777FF7310078013000000130000004A
:1002840037170040930670052300D704930680FABD
:100294002300D70413000000130000008346B704B2
:1002A40093E606F893F6F60FA305D7042300070494
:1002B400F326008003A70700137787003367D7006E
:1002C4007310078023A00700130000001300000030
:1002D40067800000137705046300070E732700800E
:1002E40013778700630C07007327008023A0E700BF
:1002F40003A70700137777FF73100780130000002C
:100304001300000037170040930670052300D7043C
:10031400930680FA2300D7041300000013000000A2
:10032400B7061400938606041375F5013365D500EA
:100334002324A70013000000130000001300000092
:100344001300000023000704F326008003A707001E
:10035400137787003367D7007310078023A0070043
:100364001300000013000000732700801377870038
:10037400630C07007327008023A0E70003A707008E
:10038400137777FF73100780130000001300000039
:1003940037170040930670052300D704930680FAAC
:1003A4002300D7041300000013000000B726004008
:1003B400130620056FF0DFE77327008013778700AB
:1003C400630C07007327008023A0E70003A707003E
:1003D400137777FF731007801300000013000000E9
:1003E40037170040930670052300D704930680FA5C
:1003F4002300D704130000001300000083268700A5
:1004040093E6060C2324D7006FF0DFE2130101FF0B
:100414009306000013060000930500001305400036
:1004240023261100EF00402B7327008013778700E9
:1004340093878182630C07007327008023A0E70061
:1004440003A70700137777FF7310078013000000DA
:100454001300000037170040930670052300D704EB
:10046400930680FA2300D704130000001300000051
:100474008346670493F6F60F93E616002303D70426
:1004840023000704F326008003A7070013778700DF
:100494003367D7007310078023A007001300000000
:1004A400130000008320C1001301010167800000D4
:1004B400130101FF930600001306000093050000DA
:1004C4001305400023261100EF000021732700804C
:1004D4001377870093878182630C0700732700805A
:1004E40023A0E70003A70700137777FF73100780A3
:1004F4001300000013000000371700409306700536
:100504002300D704930680FA2300D70413000000C5
:10051400130000009306F0FF2316D70223000704FC
:10052400F326008003A70700137787003367D700FB
:100534007310078023A007001300000013000000BD
:100544007327008013778700630C070073270080EC
:1005540023A0E70003A70700137777FF7310078032
:1005640013000000130000003717004093067005C5
:100574002300D704930680FA2300D7041300000055
:10058400130000008346670493F6F60F93E6160003
:100594002303D70423000704F326008003A70700DE
:1005A400137787003367D7007310078023A00700F1
:1005B40013000000130000006F00000093174500B3
:1005C4003385A740130000001305F5FFE31C05FE67
:1005D40067800000130101FF23248100232291007E
:1005E400232611009304050013040000631C9400E7
:1005F4008320C100032481008324410013010101ED
:1006040067800000130414001305803E13140401D2
:10061400EFF0DFFA135404016FF05FFD230304804D
:1006240015472303E48001002302A480828083070A
:100634006480E3CE07FE2303048082808307648002
:10064400E3CE07FE03454480828083076480E3CEC3
:1006540007FE2302A4808280411126C44AC24EC0F0
:1006640006C61377F50BAD47AA892E899544630610
:10067400F70019456537653F8D444E854537FD596B
:10068400FD1463983401B240A244124982494101E5
:100694008280135509011375F50F453F2209CDB723
:1006A400011126CC06CEB704080051371545BD37D5
:1006B400713769372AC6A53F32459377150089EB10
:1006C400136515001375F50FF240E244056182804D
:1006D400FD14E9FC0145CDBF397126DC4ADA4ED858
:1006E40052D656D45AD25ED006DE62CE66CCB7E776
:1006F40000E07D5783AA070022C603AA470023A06F
:10070400E71823A2E718B7170040130770052380E2
:10071400E704130780FA2380E70483C74704930B95
:1007240075FFB684E20793FBFB0F8546AA892E8BDF
:10073400328937240040E187015763FA7601630860
:10074400D5008946130700026313D5000157D98FDA
:1007540093F7F70FB71C00402382FC0411472303CF
:10076400E4801305F00F5D3D094CD135636D7C11B8
:10077400B7050700DA9537870700795563F2E50472
:10078400B3879500636EF702370B0800A94733EB74
:1007940065016399F90689E48144513D26850DA0DC
:1007A400DA850945553D05090345F9FFFD14050B97
:1007B400693D81C49377FB0FFDF7DD3569FD7D55F8
:1007C400B7170040130770052380E704130780FA66
:1007D4002380E70403C74704418B2382E704F250D4
:1007E400B7E700E023A0571123A24711E254324493
:1007F4005259C259325AA25A125B825B724CE24C71
:1008040021618280A5476395F90685691309F00F74
:10081400B3069900B3742B01B6941349F9FFB3746A
:100824009900856B33796901416B9387F9FFB3F7BD
:10083400270199E363FC340193D94900C147E3E6F6
:1008440037FF99BF0569C1697D19D9B71305800DB3
:100854006388690113050002638479011305100894
:10086400CA85DD3B353D21DD4E99B3843441D9B78A
:10087400DA852D45D533CA94E30099F205097D3B09
:10088400A30FA9FED5BF9387F9FF93F7F70F636111
:10089400FC0C83C71C0413073008631FF7043707D5
:1008A4000800636BEB04B3079B00B706100063F505
:1008B400D704334BEB0089476393F9068980D54904
:1008C400E38C04ECDA850945413B11090327C9FF90
:1008D40091472320E48003076480E34E07FE23034B
:1008E4003481FD17EDFBFD14110B81C49377FB0FCD
:1008F400E9FF7D3371F5E1B5B717004003C757042D
:10090400B70708001377070219E3B787070079557B
:10091400E378FBEA33079B00E3FFE7F855B5854727
:10092400E382F9F2DA852D45053B9389F4FFE385EB
:1009340004E6293393F7390091EB832604800327D7
:10094400090093074900E39AE6E43E89CE84F1BFA7
:10095400B5476396F9001305900BC93135BDB1470E
:100964001305B00AE38BF9FE99476391F904B705BF
:100974000800B365BB002D45C53181448D4BA149A9
:10098400753963967401832704802320F900850454
:10099400E39834FF8327048013172B016355070062
:1009A4002312F900D5BB2322F900FDB39D476399B7
:1009B400F90281451305B0044531BD4423200900E3
:1009C40023220900FD599D3993F77400CA9703C780
:1009D4000700FD14398D2380A700E39634FF6DBB17
:1009E400A1476392F9046D398144630D0B008D476F
:1009F4009304C0036308FB009304000563048B01A4
:100A0400930440041375C507E30895D81945393193
:100A140039390545213126850D3909453D3149319D
:100A2400E31C05D669BB91476399F9001305600679
:100A3400F536F53E130590090DB7E38F09D4F1544B
:100A4400A9BB00009305000273A045808245739002
:100A5400153492402242B2424243D2436244F244A9
:100A6400025592552256B2564257D2576258F258FE
:100A740006499649264AB64A464BD64B664CF64C2E
:100A8400065D965D265EB65E465FD65F09617300BD
:100A940020300000197106C212C416C61AC81ECA34
:100AA40022CC26CE2AD02ED232D436D63AD83EDA2A
:100AB40042DC46DECAC0CEC2D2C4D6C6DAC8DECA5A
:100AC400E2CCE6CEEAD0EED2F2D4F6D6FAD8FEDA0A
:100AD400938501828841E700050092402242B24298
:100AE4004243D2436244F244025592552256B256CE
:100AF4004257D2576258F25806499649264AB64A8E
:100B0400464BD64B664CF64C065D965D265EB65E4D
:0C0B1400465FD65F0961730020300000CE
:100B20009711002093810186177100201301814DD8
:100B30001305400097F5FF1F9385C54C170600204D
:100B4000130606FE63FAC5008322050023A05500A4
:100B500011059105E3EAC5FE17650000130545DCA4
:100B6000970500209385C5FB1386018263FAC500B3
:100B70008322050023A0550011059105E3EAC5FE77
:100B8000138501829385C1896377B5002320050011
:100B90001105E36DB5FEFD42739002BC8D4273906A
:100BA00042809302800873A0023097F2FF1F938265
:100BB000624593E232007390523097320000938284
:100BC000629673901234730020300000130101FF0D
:100BD0002326110023248100130401019305100032
:100BE00013058000EF201016130000008320C100C1
:100BF000032481001301010167800000130101FE3D
:100C0000232E1100232C810013040102232604FE4D
:100C10000327C4FE9307900163C6E7049305000011
:100C200013058000EF20501D1307A0018327C4FE89
:100C3000B307F74013850700EF30403893051000E5
:100C400013058000EF20501B8327C4FE1385070087
:100C5000EF30C0368327C4FE938717002326F4FEA7
:100C60006FF01FFB9307A0012324F4FE832784FE6B
:100C70006356F0049305100013058000EF20D01791
:100C8000832784FE13850700EF304033930500006F
:100C900013058000EF2050161307A001832784FE60
:100CA000B307F74013850700EF304031832784FEF8
:100CB0009387F7FF2324F4FE6FF05FFB1305803E5C
:100CC000EF30C02F130000008320C10103248101F5
:100CD0001301010267800000130101FE232E1100A1
:100CE000232C8100130401022326A4FE9387050010
:100CF00013070600A305F4FE930707002305F4FE7F
:100D00008327C4FE0347B4FEA388E7008327C4FEFD
:100D10000347A4FE2389E700B71700409387870A9B
:100D200003A707008327C4FE83C717019386070024
:100D300093071000B397D70093860700B7170040BA
:100D40009387870A3367D70023A0E7008327C4FE71
:100D500083C727011387070093071000B397E700A5
:100D60009305100013850700EF30C0008327C4FEF1
:100D700083C717011387070093071000B397E70095
:100D80009305300013850700EF20D07E93071000F5
:100D9000138507008320C10103248101130101028F
:100DA00067800000130101FE232E1100232C810017
:100DB000130401022326A4FE2324B4FE9307060095
:100DC0002313F4FEB71700409387870A03A7070091
:100DD0008327C4FE83C7170193860700930710007B
:100DE000B397D70093860700B71700409387870A09
:100DF0003367D70023A0E7008327C4FE83C72701FA
:100E00001387070093071000B397E70093051000BE
:100E100013850700EF2010768327C4FE83C71701D0
:100E20001387070093071000B397E700930530007E
:100E300013850700EF201074032784FE8327C4FE68
:100E400023AAE7008327C4FE83A747011385070071
:100E5000EF30C011B737004093872740130770F871
:100E60002380E700B73700409387374013073000EF
:100E70002380E700B737004093871740130700042B
:100E80002380E700B73700409387E740130710003F
:100E90002380E7008327C4FE130710002388E700A0
:100EA000130000008320C10103248101130101020A
:100EB00067800000130101FE232E8100130401024C
:100EC0002326A4FE8327C4FE238807001300000006
:100ED0000324C1011301010267800000130101FE18
:100EE000232E8100130401022326A4FE8327C4FEBF
:100EF00083A78701138507000324C10113010102A1
:100F000067800000130101FE232E810013040102FB
:100F10002326A4FEB73700409387874083C7070086
:100F200093F7F70F138507000324C1011301010292
:100F300067800000130101FE232E810013040102CB
:100F40002326A4FE9307F0FF138507000324C101A5
:100F50001301010267800000130101FE232E8100AE
:100F6000130401022326A4FE9307F0FF1385070054
:100F70000324C1011301010267800000130101FE77
:100F8000232E8100130401022326A4FE1300000077
:100F90000324C1011301010267800000130101FE57
:100FA000232E8100130401022326A4FE938705004B
:100FB000A305F4FE8327C4FE83C7070193C7170068
:100FC00093F7F70F63860700930700006F00800117
:100FD000B7370040938787400347B4FE2380E7007C
:100FE00093071000138507000324C10113010102B8
:100FF00067800000130101FD232681021304010311
:10100000232EA4FC232CB4FC232AC4FC8327C4FD78
:1010100083C7070193C7170093F7F70F638607008D
:10102000930700006F008006832744FD2326F4FE0B
:101030008327C4FE638A0704B73700409387B7400D
:1010400083C7070093F7F70F938787FFB337F00045
:1010500093F7F70FE38E07FCB7370040938787407D
:10106000032784FD034707002380E7008327C4FE8E
:101070009387F7FF2326F4FE832784FD93871700C9
:10108000232CF4FC6FF0DFFA832744FD138507005F
:101090000324C1021301010367800000130101FE54
:1010A000232E8100130401022326A4FE8327C4FEFD
:1010B00083C70701138507000324C101130101023F
:1010C00067800000130101FE232E1100232C8100F4
:1010D000130401022326A4FE2324B4FE0327C4FE26
:1010E00093071000631AF702032784FEB707010075
:1010F0009387F7FF6312F7021306800093059000B1
:1011000013854183EF2050191306500093054000CA
:1011100013850185EF205018130000008320C101C2
:10112000032481011301010267800000130101FF04
:10113000232611002324810013040101B7070100B5
:101140009385F7FF13051000EFF0DFF78320C10050
:10115000032481001301010167800000130101FED7
:10116000232E1100232C8100130401022326A4FE48
:10117000930500000325C4FEEF008001130000006A
:101180008320C10103248101130101026780000053
:10119000130101FE232E1100232C810013040102F0
:1011A0002326A4FE2324B4FE8327C4FE1385070050
:1011B000EF201016B76700001387474C8327C4FE43
:1011C00023A0E7008327C4FE032784FE23AAE700A9
:1011D0008327C4FE93874700130600019305000090
:1011E00013850700EF202062130000008320C10157
:1011F000032481011301010267800000130101FE35
:10120000232E1100232C8100130401022326A4FEA7
:1012100093870500A305F4FE930706002305F4FE5B
:1012200093870600A304F4FE930707002304F4FE4B
:101230008327C4FE13850700EF20900DB7670000D9
:101240001387474C8327C4FE23A0E7008327C4FEEF
:1012500023AA07008327C4FE9387470013060001D3
:101260009305000013850700EF20E0598327C4FE93
:101270000347B4FE2388E7008327C4FE0347A4FE88
:10128000A388E7008327C4FE034794FE2389E70071
:101290008327C4FE034784FEA389E70013000000F0
:1012A0008320C10103248101130101026780000032
:1012B000130101FE232E1100232C810013040102CF
:1012C0002326A4FE138E05001303060013850600D3
:1012D000930507001386070093060800138708008C
:1012E00093070E00A305F4FE930703002305F4FE05
:1012F00093070500A304F4FE938705002304F4FE7E
:1013000093070600A303F4FE938706002303F4FE6D
:1013100093070700A302F4FE8327C4FE138507008A
:10132000EF20007FB76700001387474C8327C4FE78
:1013300023A0E7008327C4FE1307100023AAE700B9
:101340008327C4FE0347B4FE2382E7008327C4FE3D
:101350000347A4FEA382E7008327C4FE034794FE4D
:101360002383E7008327C4FE034784FEA383E700AB
:101370008327C4FE034774FE2384E7008327C4FE4B
:10138000034764FEA384E7008327C4FE034754FE9B
:101390002385E7008327C4FE03470400A385E700F5
:1013A0008327C4FE034744002386E7008327C4FE47
:1013B00003478400A386E7008327C4FE0347C400D5
:1013C0002387E7008327C4FE03470401A387E700C0
:1013D0008327C4FE034744012388E7008327C4FE14
:1013E00003478401A388E7008327C4FE0347C401A1
:1013F0002389E7008327C4FE03470402A389E7008B
:10140000130000008320C1010324810113010102A4
:1014100067800000130101FE232E1100232C8100A0
:10142000130401022326A4FE2324B4FE8327C4FE52
:1014300013850700EF20C06DB76700001387474C86
:101440008327C4FE23A0E7008327C4FE23AA070046
:101450008327C4FE9387470013060001930500000D
:1014600013850700EF20203A8327C4FE032784FE5C
:1014700023A8E700130000008320C1010324810199
:101480001301010267800000130101FE232E1100E9
:10149000232C8100130401022326A4FE2324B4FE7E
:1014A000032684FE930500000325C4FEEF0080019F
:1014B000130000008320C1010324810113010102F4
:1014C00067800000130101FE232E1100232C8100F0
:1014D000130401022326A4FE2324B4FE2322C4FE07
:1014E0008327C4FE13850700EF208062B7670000E2
:1014F0001387474C8327C4FE23A0E7008327C4FE3D
:10150000032784FE23AAE700832784FE639C070247
:101510008327C4FE9387470013060001930500004C
:1015200013850700EF20202E8327C4FE9387070131
:1015300013064000832544FE13850700EF409045C5
:101540006F00C0018327C4FE938747001306000184
:10155000832544FE13850700EF40D04313000000AD
:101560008320C1010324810113010102678000006F
:10157000130101FE232E1100232C8100130401020C
:101580002326A4FE2324B4FE832584FE0325C4FE63
:10159000EF0000049307050093C7170093F7F70FB8
:1015A000638C0700832584FE0325C4FEEF00801EA4
:1015B000930705006F008000930710001385070054
:1015C0008320C1010324810113010102678000000F
:1015D000130101FD232611022324810213040103B8
:1015E000232EA4FC232CB4FC9307F0FF2317F4FE56
:1015F000A30604FE8327C4FD93874700130600015A
:101600009305000013850700EF20E01F832784FD6A
:1016100083C7070063860712832784FD138717009B
:10162000232CE4FC83C707002306F4FE0347C4FE13
:101630009307F00263F0E70A0347C4FE93079003A1
:1016400063EAE7088317E4FE63D407028347C4FE16
:101650009397070193D70701938707FD9397070196
:1016600093D707019397070193D707416F000005B0
:101670008357E4FE1387070093070700939727001B
:10168000B387E700939717001397070113570701D4
:101690008347C4FE9397070193D70701B307F70069
:1016A0009397070193D70701938707FD9397070146
:1016B00093D707019397070193D707412317F4FEA8
:1016C0000317E4FE9307F00F63DAE70693070000C1
:1016D0006F00000B0347C4FE9307E002631CF7048E
:1016E0000347D4FE930730006316F700930700000A
:1016F0006F0000098317E4FE63D60700930700001C
:101700006F0000088347D4FE13871700A306E4FE8A
:101710009387C7000357E4FE1377F70F8326C4FDB2
:10172000B387F6002382E7009307F0FF2317F4FE48
:101730006FF0DFED930700006F0080046FF01FED86
:101740000347D4FE930730006306F70093070000B9
:101750006F0000038317E4FE63D6070093070000C1
:101760006F0000028357E4FE13F7F70F8327C4FDD1
:10177000A389E7008327C4FD23AA0700930710006D
:10178000138507008320C102032481021301010392
:1017900067800000130101FC232E1102232C81021B
:1017A000130401042326A4FC2324B4FC232604FEF2
:1017B000232404FE9307F0FF2322F4FE832784FCF6
:1017C00083C7070063880718832784FC13871700E3
:1017D0002324E4FC83C7070013850700EF40D03DB6
:1017E00093070500A301F4FE834734FE1385070029
:1017F000EF40101693070500638A0704034734FE81
:101800009307600663E4E704034734FE930700068A
:1018100063F8E700834734FE938797FDA301F4FE46
:101820008327C4FE13974700834734FEB307F700AE
:10183000938707FD2326F4FE0327C4FEB7070100A4
:101840006368F710930700006F004027034734FEDA
:101850009307A003631AF70E832784FC03C70700CE
:101860009307A0036314F706832744FE63C60700AB
:10187000930700006F008024832784FC83C7070040
:1018800063800702832784FC9387170003C7070040
:101890009307A0036316F700930700006F00002270
:1018A0008327C4FEB337F00093F7F70F13870700C1
:1018B000832784FEB387E7002322F4FE832784FC7A
:1018C000938717002324F4FC6F008001832784FC96
:1018D00083C7070063960700930700006F00001E90
:1018E000032784FE930770006316F7009307000038
:1018F0006F00C01C8327C4FE13D78700832784FE94
:10190000939717001377F70F8326C4FCB387F6006D
:101910002382E700832784FE93971700938717009D
:101920000327C4FE1377F70F8326C4FCB387F600A2
:101930002382E700832784FE938717002324F4FE85
:10194000232604FE6FF09FE7930700006F00001747
:101950006FF0DFE6032744FE9307F0FF631CF700F8
:10196000032784FE930770006306F70093070000C7
:101970006F00C014832744FE63CC0700032784FE56
:101980009307600063D6E700930700006F00001321
:101990008327C4FE13D78700832784FE93971700FD
:1019A0001377F70F8326C4FCB387F6002382E70082
:1019B000832784FE93971700938717000327C4FE9D
:1019C0001377F70F8326C4FCB387F6002382E70062
:1019D000832784FE938717002324F4FE032744FE05
:1019E0009307F0FF6304F70C032784FE832744FE6C
:1019F000B307F740939717009387F7FF232EF4FC64
:101A00008327C4FD63CE0704832744FE1397170082
:101A10008327C4FD3307F70093068000832784FEE5
:101A2000B386F640832744FEB387F60093961700EB
:101A30008327C4FDB387F6008326C4FC3387E60002
:101A4000034747008326C4FCB387F6002382E700E0
:101A50008327C4FD9387F7FF232EF4FC6FF05FFA12
:101A6000832744FE93971700232CF4FC1307800070
:101A7000832784FE3307F740832744FEB307F7002C
:101A800093971700032784FD6352F7020327C4FCD2
:101A9000832784FDB307F70023820700832784FD93
:101AA00093871700232CF4FC6FF05FFC8327C4FCA2
:101AB0001307100023AAE7009307100013850700FF
:101AC0008320C10303248103130101046780000004
:101AD000130101FE232E1100232C810013040102A7
:101AE0002326A4FE2324B4FE8327C4FE23AA0700D2
:101AF0008327C4FE93874700130600019305000067
:101B000013850700EF1030508327C4FE9387070129
:101B100013064000832584FE13850700EF4080678D
:101B20008327C4FE138507008320C101032481019C
:101B30001301010267800000130101FE232E110032
:101B4000232C8100130401022326A4FE2324B4FEC7
:101B50008327C4FE23AA07008327C4FE9387470078
:101B6000130600019305000013850700EF10B0492C
:101B70008327C4FE032784FE23A8E7008327C4FE2F
:101B8000138507008320C101032481011301010291
:101B900067800000130101FE232E1100232C810019
:101BA000130401022326A4FE2324B4FE832784FE0B
:101BB00003A747018327C4FE83A74701631AF702DF
:101BC000832784FE138747008327C4FE938747003B
:101BD000130600019385070013050700EF40205905
:101BE0009307050063960700930710006F008000BD
:101BF00093070000138507008320C101032481019E
:101C00001301010267800000130101FE232E110061
:101C1000232C8100130401022326A4FE2324B4FEF6
:101C20008327C4FE83A74701639607028327C4FE68
:101C3000938707011306400093850700032584FE60
:101C4000EF40E052930705006396070093071000EA
:101C50006F00800093070000138507008320C101F7
:101C6000032481011301010267800000130101FEBA
:101C7000232E8100130401022326A4FE2324B4FE94
:101C80008327C4FE83A74701639E0700832784FE42
:101C90009387C7000327C4FEB307F70083C7470035
:101CA0006F0040010327C4FE832784FEB307F700BB
:101CB00083C74700138507000324C10113010102F4
:101CC00067800000130101FE232E8100130401022E
:101CD0002326A4FE2324B4FE8327C4FE83A7470142
:101CE000639E0700832784FE9387C7000327C4FEF3
:101CF000B307F700938747006F0040010327C4FE36
:101D0000832784FEB307F7009387470013850700F6
:101D10000324C1011301010267800000130101FCCB
:101D2000232E1102232C8102130401042326A4FC78
:101D30002324B4FC232604FE8327C4FC03A7470105
:101D400093071000631CF7349307F0FFA305F4FE1C
:101D5000930710002305F4FE9307F0FFA304F4FE9D
:101D6000230404FEA30304FE030774FE930770001C
:101D700063C6E70A830774FE939717000327C4FC22
:101D8000B307F70083C74700639A0706830774FE0B
:101D900093971700938717000327C4FCB307F70036
:101DA00083C74700639C0704030794FE9307F0FF73
:101DB000631CF700834774FEA304F4FE930710002E
:101DC0002304F4FE6F008001830784FE93F7F70F6E
:101DD0009387170093F7F70F2304F4FE030784FE9D
:101DE0008307A4FE63D0E702834794FEA305F4FEB5
:101DF000834784FE2305F4FE6F00C0009307F0FFC5
:101E0000A304F4FE830774FE93F7F70F938717007C
:101E100093F7F70FA303F4FE6FF01FF5232004FEE2
:101E2000032704FE9307700063C6E7268307B4FE0A
:101E3000032704FE634CF7000307B4FE8307A4FEE8
:101E4000B307F700032704FE6344F71E832704FE4D
:101E5000939717000327C4FCB307F70083C7470015
:101E600093D74700A30DF4FC832704FE9397170034
:101E70000327C4FCB307F70083C7470093F7F700B5
:101E8000230DF4FC832704FE939717009387170014
:101E90000327C4FCB307F70083C7470093D7470065
:101EA000A30CF4FC832704FE939717009387170075
:101EB0000327C4FCB307F70083C7470093F7F70075
:101EC000230CF4FC8347B4FD638407040347B4FD8B
:101ED0009307900063EAE7008347B4FD9387070305
:101EE00093F7F70F6F0000018347B4FD93877705E1
:101EF00093F7F70F93850700032584FCEF00004656
:101F0000130705008327C4FEB387E7002326F4FEEA
:101F10008347B4FD639607008347A4FD63840704E9
:101F20000347A4FD9307900063EAE7008347A4FDFD
:101F30009387070393F7F70F6F0000018347A4FD12
:101F40009387770593F7F70F93850700032584FCA4
:101F5000EF00C040130705008327C4FEB387E700E6
:101F60002326F4FE8347B4FD639A07008347A4FD4C
:101F700063960700834794FD63840704034794FD39
:101F80009307900063EAE700834794FD9387070374
:101F900093F7F70F6F000001834794FD9387770550
:101FA00093F7F70F93850700032584FCEF00003BB0
:101FB000130705008327C4FEB387E7002326F4FE3A
:101FC000034784FD9307900063EAE700834784FD9D
:101FD0009387070393F7F70F6F000001834784FD92
:101FE0009387770593F7F70F93850700032584FC04
:101FF000EF00C036130705008327C4FEB387E70050
:102000002326F4FE032704FE9307600063CAE70655
:102010009305A003032584FCEF004034130705005B
:102020008327C4FEB387E7002326F4FE6F00400534
:102030008307B4FE032704FE6316F7048307B4FE88
:10204000639007029305A003032584FCEF00003191
:10205000130705008327C4FEB387E7002326F4FE99
:102060009305A003032584FCEF00402F1307050010
:102070008327C4FEB387E7002326F4FE6F008000A9
:1020800013000000832704FE938717002320F4FE2B
:102090006FF01FD98327C4FE6F00000A232E04FCB3
:1020A0000327C4FD9307200063C2E7068327C4FD0E
:1020B0009387C7000327C4FCB307F70083C7470013
:1020C0001306A00093850700032584FCEF00002E73
:1020D000130705008327C4FEB387E7002326F4FE19
:1020E0009305E002032584FCEF0040271307050059
:1020F0008327C4FEB387E7002326F4FE8327C4FDAD
:1021000093871700232EF4FC6FF09FF98327C4FCFC
:1021100083C737011306A00093850700032584FCBD
:10212000EF00C028130705008327C4FEB387E7002C
:102130002326F4FE8327C4FE138507008320C103F2
:10214000032481031301010467800000130101FED1
:10215000232E1100232C8100130401022326A4FE48
:102160002324B4FE0327C4FE93071000631CF70268
:10217000032784FEB70701009387F7FF6314F70274
:10218000930510001385C186EFF08F8013070000C0
:102190009306000013060000930500001385418894
:1021A000EFF0CF85130000008320C10103248101DB
:1021B0001301010267800000130101FF23261100B3
:1021C0002324810013040101B70701009385F7FF61
:1021D00013051000EFF09FF78320C1000324810056
:1021E0001301010167800000130101FD2326110284
:1021F0002324810213040103232EA4FC232CB4FC0A
:10220000232AC4FC232604FE832744FD1387F7FFFB
:10221000232AE4FCB337F00093F7F70F6388070431
:102220008327C4FD83A7070083A60700832784FDB7
:1022300013871700232CE4FC83C70700938507004E
:102240000325C4FDE780060093070500B337F000BF
:1022500093F7F70F638A07008327C4FE938717005D
:102260002326F4FE6FF05FFA130000008327C4FEFC
:10227000138507008320C102032481021301010397
:1022800067800000130101FE232E1100232C810022
:10229000130401022326A4FE2324B4FE832584FE16
:1022A0000325C4FEEF00C007930705001385070050
:1022B0008320C10103248101130101026780000012
:1022C000130101FE232E1100232C8100232A9100EB
:1022D000130401022326A4FE2324B4FE032584FE56
:1022E000EF10101A93040500032584FEEF10D0169A
:1022F0009307050013860700938504000325C4FE99
:10230000EF10102293070500138507008320C101F9
:10231000032481018324410113010102678000002D
:10232000130101FE232E1100232C8100130401024E
:102330002326A4FE2324B4FE832584FE0325C4FEA5
:10234000EF10901693070500138507008320C10145
:10235000032481011301010267800000130101FEC3
:10236000232E1100232C8100130401022326A4FE36
:1023700093870500A305F4FE8327C4FE83A7070007
:1023800003A707008347B4FE938507000325C4FE17
:10239000E700070093070500138507008320C101AC
:1023A000032481011301010267800000130101FE73
:1023B000232E1100232C8100130401022326A4FEE6
:1023C000938705002322C4FEA305F4FE8347B4FED1
:1023D000032644FE938507000325C4FEEF00C019C1
:1023E00093070500138507008320C10103248101A1
:1023F0001301010267800000130101FE232E11006A
:10240000232C8100130401022326A4FE2324B4FEFE
:102410002322C4FE032644FE832584FE0325C4FE36
:10242000EF00000693070500138507008320C10114
:10243000032481011301010267800000130101FEE2
:10244000232E1100232C8100130401022326A4FE55
:102450002324B4FE2322C4FE032644FE832584FEE7
:102460000325C4FEEF004011930705001385070004
:102470008320C10103248101130101026780000050
:10248000130101FD232611022324810213040103F9
:10249000232EA4FC232CB4FC232AC4FC832744FD54
:1024A000639607028327C4FD83A7070003A70700DD
:1024B000832784FD93F7F70F938507000325C4FD59
:1024C000E7000700930705006F00C009032744FDDC
:1024D0009307A0006316F706832784FD63D40704DF
:1024E0009305D0020325C4FDEFF05FE793070500D5
:1024F0002326F4FE832784FDB307F040232CF4FC4D
:10250000832784FD1306A000938507000325C4FDDF
:10251000EF001008130705008327C4FEB307F70078
:102520006F004004832784FD1306A00093850700F5
:102530000325C4FDEF00D005930705006F0080025E
:10254000832784FD032744FD1377F70F1306070045
:10255000938507000325C4FDEF0090039307050052
:1025600013000000138507008320C10203248102A9
:102570001301010367800000130101FE232E1100E7
:10258000232C8100130401022326A4FE2324B4FE7D
:102590002322C4FE832744FE639607028327C4FEDA
:1025A00083A7070003A70700832784FE93F7F70F8D
:1025B000938507000325C4FEE70007009307050085
:1025C0006F004002832744FE93F7F70F138607003E
:1025D000832584FE0325C4FEEF00807B930705005E
:1025E00013000000138507008320C101032481012B
:1025F0001301010267800000130101FD232611026F
:102600002324810213040103232EA4FC2328B4FCF9
:10261000232AC4FC232CD4FC832784FD6394070263
:102620008327C4FD83A7070003A70700834704FD92
:10263000938507000325C4FDE70007009307050005
:102640006F00400D032784FD9307A0006310F70A75
:10265000832744FD63DA07069305D0020325C4FDF2
:10266000EFF0DFCF930705002326F4FE13060000EA
:1026700093060000032504FD832544FD3307A6408F
:102680001308070033380601B387B640B386074105
:10269000938706002328E4FC232AF4FC032704FD87
:1026A000832744FD9306A0009305070013860700C7
:1026B0000325C4FDEF00407C130705008327C4FEFB
:1026C000B307F7006F000005032704FD832744FDCF
:1026D0009306A00093050700138607000325C4FD99
:1026E000EF008079930705006F00C002032704FD07
:1026F000832744FD832684FD93F6F60F9305070098
:10270000138607000325C4FDEF000077930705003B
:1027100013000000138507008320C10203248102F7
:102720001301010367800000130101FE232E110035
:10273000232C8100130401022326A4FE2320B4FECF
:102740002322C4FE2324D4FE832784FE639407023D
:102750008327C4FE83A7070003A70700834704FE5F
:10276000938507000325C4FEE700070093070500D3
:102770006F008002832784FE93F7F70F938607008C
:10278000832504FE032644FE0325C4FEEF00C06E2D
:102790009307050013000000138507008320C10183
:1027A000032481011301010267800000130101FE6F
:1027B000232E1100232C8100130401022326A4FEE2
:1027C0002320B4FE2322C4FE2324D4FE832684FEC9
:1027D000832504FE032644FE0325C4FEEF00901C5F
:1027E00093070500138507008320C101032481019D
:1027F0001301010267800000130101FD232611026D
:102800002324810213040103232EA4FC232CB4FCF3
:10281000832584FD0325C4FDEFF0DFA693070500A3
:102820002326F4FE0325C4FDEF004007130705002F
:102830008327C4FEB387E7002326F4FE8327C4FE64
:10284000138507008320C1020324810213010103C1
:1028500067800000130101FE232E1100232C81004C
:10286000130401022326A4FE2324B4FE832784FE3E
:1028700083A7070083A707008325C4FE032584FEE2
:10288000E780070093070500138507008320C10137
:10289000032481011301010267800000130101FE7E
:1028A000232E1100232C8100130401022326A4FEF1
:1028B000B76700009385873F0325C4FEEF10C03E35
:1028C00093070500138507008320C10103248101BC
:1028D0001301010267800000130101FD232611028C
:1028E0002324810213040103232EA4FC232CB4FC13
:1028F000832584FD0325C4FDEFF09F9C930705000D
:102900002326F4FE0325C4FDEFF05FF9130705004D
:102910008327C4FEB387E7002326F4FE8327C4FE83
:10292000138507008320C1020324810213010103E0
:1029300067800000130101FD232611022324810278
:1029400013040103232EA4FC232CB4FC832584FD53
:102950000325C4FDEFF0DF9C930705002326F4FE5A
:102960000325C4FDEFF09FF3130705008327C4FE82
:10297000B387E7002326F4FE8327C4FE13850700F0
:102980008320C10203248102130101036780000038
:10299000130101FD232611022324810213040103E4
:1029A000232EA4FC93870500A30DF4FC8347B4FDFC
:1029B000938507000325C4FDEFF05F9A9307050098
:1029C0002326F4FE0325C4FDEFF05FED1307050099
:1029D0008327C4FEB387E7002326F4FE8327C4FEC3
:1029E000138507008320C102032481021301010320
:1029F00067800000130101FD2326110223248102B8
:102A000013040103232EA4FC93870500232AC4FC8E
:102A1000A30DF4FC8347B4FD032644FD9385070012
:102A20000325C4FDEFF09F98930705002326F4FECD
:102A30000325C4FDEFF09FE6130705008327C4FEBE
:102A4000B387E7002326F4FE8327C4FE138507001F
:102A50008320C10203248102130101036780000067
:102A6000130101FD23261102232481021304010313
:102A7000232EA4FC232CB4FC232AC4FC032644FDEF
:102A8000832584FD0325C4FDEFF01F979307050000
:102A90002326F4FE0325C4FDEFF05FE013070500D5
:102AA0008327C4FEB387E7002326F4FE8327C4FEF2
:102AB000138507008320C10203248102130101034F
:102AC00067800000130101FD2326110223248102E7
:102AD00013040103232EA4FC232CB4FC232AC4FCDE
:102AE000032644FD832584FD0325C4FDEFF01F95D7
:102AF000930705002326F4FE0325C4FDEFF01FDA3B
:102B0000130705008327C4FEB387E7002326F4FEDE
:102B10008327C4FE138507008320C102032481029A
:102B20001301010367800000130101FD2326110238
:102B30002324810213040103232EA4FC232CB4FCC0
:102B4000232AC4FC032644FD832584FD0325C4FDFC
:102B5000EFF01F93930705002326F4FE0325C4FD21
:102B6000EFF0DFD3130705008327C4FEB387E70028
:102B70002326F4FE8327C4FE138507008320C102A9
:102B8000032481021301010367800000130101FD8A
:102B9000232611022324810213040103232EA4FC03
:102BA000232CB4FC232AC4FC032644FD832584FD86
:102BB0000325C4FDEFF05F9C930705002326F4FE78
:102BC0000325C4FDEFF09FCD130705008327C4FE46
:102BD000B387E7002326F4FE8327C4FE138507008E
:102BE0008320C102032481021301010367800000D6
:102BF000130101FD23261102232481021304010382
:102C0000232EA4FC2328B4FC232AC4FC232CD4FCAC
:102C1000832684FD832504FD032644FD0325C4FD8E
:102C2000EFF09F9D930705002326F4FE0325C4FDC6
:102C3000EFF0DFC6130705008327C4FEB387E70064
:102C40002326F4FE8327C4FE138507008320C102D8
:102C5000032481021301010367800000130101FDB9
:102C6000232611022324810213040103232EA4FC32
:102C70002328B4FC232AC4FC232CD4FC832684FD03
:102C8000832504FD032644FD0325C4FDEFF0DFA9E1
:102C9000930705002326F4FE0325C4FDEFF01FC0B3
:102CA000130705008327C4FEB387E7002326F4FE3D
:102CB0008327C4FE138507008320C10203248102F9
:102CC0001301010367800000130101FD2326110297
:102CD0002324810213040103232EA4FC2328B4FC23
:102CE000232AC4FC232CD4FC832684FD832504FDE5
:102CF000032644FD0325C4FDEFF05FAB93070500F9
:102D00002326F4FE0325C4FDEFF05FB91307050089
:102D10008327C4FEB387E7002326F4FE8327C4FE7F
:102D2000138507008320C1020324810213010103DC
:102D300067800000130101FD232611022324810274
:102D400013040103232EA4FC232CB4FC832584FD4F
:102D50000325C4FDEFF01FB0930705002326F4FE02
:102D60000325C4FDEFF09FB3130705008327C4FEBE
:102D7000B387E7002326F4FE8327C4FE13850700EC
:102D80008320C10203248102130101036780000034
:102D9000130101FB232611042324810413040105DC
:102DA000232EA4FA232CB4FA93070600A30BF4FAFB
:102DB000930784FC938707022326F4FE8327C4FE2F
:102DC00023800700034774FB9307100063E6E700C6
:102DD0009307A000A30BF4FA034774FB832784FB3B
:102DE0009305070013850700EF00501D93070500AA
:102DF000A305F4FE834774FB93850700032584FB3A
:102E0000EF00101993070500232CF4FA0347B4FED2
:102E10009307900063EAE7008347B4FE93870703B4
:102E200093F7F70F6F0000018347B4FE9387770392
:102E300093F7F70F0327C4FE1307F7FF2326E4FEDB
:102E40000327C4FE2300F700832784FB6384070065
:102E50006FF09FF88325C4FE0325C4FBEF00D06408
:102E600093070500138507008320C1040324810410
:102E70001301010567800000130101F723261108E3
:102E8000232481082322910823202109232E31079E
:102E9000232C4107232A510713040109232EA4F6EA
:102EA0002328B4F6232AC4F693870600A30DF4F66C
:102EB000A30F04FC230F04FC0347B4F7930710008F
:102EC00063E6E7009307A000A30DF4F60347B4F709
:102ED000B7070100930507001385F7FFEF00D00A3D
:102EE00093070500231AF4FC93071000231EF4FC3B
:102EF0000357C4FD835744FD637CF7028347B4F74F
:102F00009397070193D707010357C4FD9305070063
:102F100013850700EF00D00593070500231EF4FC7E
:102F20008347E4FD93871700230FF4FC6FF05FFCE9
:102F30008357C4FD9397070193D7070113890700AF
:102F400093090000832744F713870900636EF70095
:102F5000832744F7138709006398E710832704F752
:102F6000130709006372F7108357C4FD9397070195
:102F700093D70701138A0700930A000013060A007B
:102F800093860A00032504F7832544F7EF100030E9
:102F900013070500938705002324E4FC2326F4FC93
:102FA000835404F7835784FC0357C4FD930507003B
:102FB00013850700EF00C07B930705009397070177
:102FC00093D70701B387F440231DF4FC032784FC47
:102FD0008327C4FC2328E4F6232AF4F6A30C04FC7C
:102FE000034794FD8347E4FDE374F7F48357A4FD9E
:102FF0000347B4F79305070013850700EF00C07877
:10300000930705002313F4FC8357A4FD93F4F70FF3
:10301000835764FC93F7F70F0347B4F79305070052
:1030200013850700EF00C0749307050013F7F70F2F
:103030008347F4FD93861700A30FD4FC3387E44045
:103040001377F70F930604FEB387F6002380E7FAA1
:10305000835764FC231DF4FC834794FD938717007A
:10306000A30CF4FC6FF0DFF7832704F7231BF4FCB9
:10307000835764FD638A0706835764FD0347B4F7EB
:103080009305070013850700EF0000709307050004
:103090002312F4FC835764FD93F4F70F835744FC29
:1030A00093F7F70F0347B4F793050700138507005D
:1030B000EF00006C9307050013F7F70F8347F4FD4B
:1030C00093861700A30FD4FC3387E4401377F70FE0
:1030D000930604FEB387F6002380E7FA835744FC87
:1030E000231BF4FC6FF0DFF88347F4FD2320F4FC8E
:1030F0008347F4FD638207088327C4F783A707008B
:1031000083A607008347F4FD9387F7FF130704FEA8
:10311000B307F70003C707FA9307900063E2E702DB
:103120008347F4FD9387F7FF130704FEB307F70007
:1031300083C707FA9387070393F7F70F6F0000021F
:103140008347F4FD9387F7FF130704FEB307F700E7
:1031500083C707FA9387770393F7F70F93850700E1
:103160000325C4F7E78006008347F4FD9387F7FF44
:10317000A30FF4FC6FF0DFF7832704FC138507002F
:103180008320C108032481088324410803290108FE
:103190008329C107032A8107832A410713010109F3
:1031A00067800000130101FB2326110423248104FE
:1031B00013040105232EA4FA2328B4FA232AC4FAFF
:1031C000232CD4FA832784FB63D6070093072000BF
:1031D000232CF4FA232604FE032504FB832544FB59
:1031E000EF00502193070500638E0700B7670000CA
:1031F0009385C73F0325C4FBEFF08F92930705002B
:103200006F00002B032504FB832544FBEF005013C4
:1032100093070500638E0700B7670000938507409A
:103220000325C4FBEFF0CF8F930705006F00402804
:10323000B767000003A6874183A6C741032504FBA7
:10324000832544FBEF20400993070500635EF000EF
:10325000B7670000938547400325C4FBEFF04F8C10
:10326000930705006F00C024B767000003A607425C
:1032700083A64742032504FB832544FBEF20C010AF
:103280009307050063DE0700B7670000938547409A
:103290000325C4FBEFF0CF88930705006F004021A2
:1032A0001306000093060000032504FB832544FB5E
:1032B000EF20800D9307050063DC07029305D00221
:1032C0000325C4FBEFF08F89130705008327C4FE95
:1032D000B387E7002326F4FE832704FB2328F4FAB0
:1032E000032744FBB7070080B347F700232AF4FA0B
:1032F000B767000003A7874283A7C7422320E4FEE5
:103300002322F4FEA30F04FC8347F4FD032784FB70
:1033100063DEE702B767000003A6074383A64743BF
:10332000032504FE832544FEEF10902013070500BB
:10333000938705002320E4FE2322F4FE8347F4FD57
:1033400093871700A30FF4FC6FF01FFC032604FE05
:10335000832644FE032504FB832544FBEF10402D08
:1033600013070500938705002328E4FA232AF4FABB
:10337000032504FB832544FBEF20704893070500D9
:103380002326F4FC0325C4FCEF20904D1307050011
:10339000938705001306070093860700032504FBA7
:1033A000832544FBEF200052130705009387050097
:1033B0002328E4FC232AF4FC1306A0008325C4FC84
:1033C0000325C4FBEFF04F9B130705008327C4FEC2
:1033D000B387E7002326F4FE832784FB6352F002C1
:1033E000B7670000938587400325C4FBEFE05FF3D8
:1033F000130705008327C4FEB387E7002326F4FEE6
:10340000832784FB1387F7FF232CE4FAB327F0000C
:1034100093F7F70F638C0708B767000003A607430D
:1034200083A64743032504FD832544FDEF20C00008
:1034300013070500938705002328E4FC232AF4FCE6
:10344000032504FD832544FDEF20703B9307050011
:103450002324F4FC1306A000832584FC0325C4FB6D
:10346000EFE0DFFD130705008327C4FEB387E70005
:103470002326F4FE032584FCEF20903E130705006D
:10348000938705001306070093860700032504FDB4
:10349000832544FDEF2000431307050093870500B3
:1034A0002328E4FC232AF4FC6FF09FF58327C4FE55
:1034B000138507008320C10403248104130101053F
:1034C00067800000130101FE232E81001304010216
:1034D0002326A4FE93070000138507000324C101DF
:1034E0001301010267800000130101FF2326810000
:1034F00013040101130000000324C10013010101A2
:1035000067800000130101FF2326810013040101DD
:10351000130000000324C1001301010167800000B3
:10352000130101FF2326110023248100130401014C
:10353000EF00D029EFF05FFBEFD04FE9EFD00FECB9
:103540006FF0DFFF130101FD232611022324810206
:103550001304010393070500232CB4FCA30FF4FC10
:10356000832784FD130720006388E70213072000E8
:10357000634AF70263880700130710006388E700B7
:103580006F004002232604FE6F0080029307400074
:103590002326F4FE6F00C001930710002326F4FEDB
:1035A0006F000001930720002326F4FE13000000A3
:1035B0008347F4FD13071000B317F7008325C4FEFB
:1035C00013850700EF00007B8347F4FD938707FF17
:1035D00013071000B317F7008325C4FE13850700F7
:1035E000EF001006130000008320C10203248102B3
:1035F0001301010367800000130101FE232E8100E7
:1036000013040102930705002324B4FEA307F4FE6C
:103610000347F4FE9307F00063E6E706832784FE82
:10362000638A0702B71700409387870A03A707003A
:103630008347F4FE93061000B397F60093860700C5
:10364000B71700409387870A3367D70023A0E700A6
:103650006F00000AB71700409387C70A03A7070047
:103660008347F4FE93061000B397F6009386070095
:10367000B71700409387C70A3367D70023A0E70036
:103680006F000007832784FE638C0702B717004092
:103690009387870C03A707008347F4FE938707FFF0
:1036A00093061000B397F60093860700B717004003
:1036B0009387870C3367D70023A0E7006F00400390
:1036C000B71700409387C70C03A707008347F4FE92
:1036D000938707FF93061000B397F60093860700C1
:1036E000B71700409387C70C3367D70023A0E700C4
:1036F000130000000324C1011301010267800000D0
:10370000130101FE232E810013040102930705001B
:10371000A307F4FE0347F4FE9307F00063E2E70219
:10372000B71700409387470A83A707000347F4FEB3
:10373000930610003397E600B3F7E7006F004002EE
:10374000B71700409387470C83A707000347F4FE91
:10375000130707FF930610003397E600B3F7E7005F
:10376000138507000324C1011301010267800000D3
:103770002A86014593F6150091C232958581060689
:10378000F5F9828000000000634E050263C3050462
:103790002E86AA857D5515C285466378B600635688
:1037A000C00006068606E36CB6FE014563E4C5006C
:1037B000918D558D85820582F5FA82808682C93F7A
:1037C0002E8582823305A0406347B000B305B04028
:1037D000C1B7B305B0408682653F3305A040828201
:1037E000868263C70500634905005D372E858282A6
:1037F000B305B040E35B05FE3305A040513F330500
:10380000B040828200003D432A876373C3029377EE
:10381000F700BDEFADE5937606FF3D8ABA960CC37F
:103820004CC30CC74CC74107E36BD7FE11E2828043
:10383000B306C3408A069702000096966780A600EA
:103840002307B700A306B7002306B700A305B700F8
:103850002305B700A304B7002304B700A303B700F0
:103860002303B700A302B7002302B700A301B700E8
:103870002301B700A300B7002300B700828093F5AF
:10388000F50F93968500D58D93960501D58D61B77B
:10389000939627009702000096968682E78086FA24
:1038A0009680C1171D8F3E96E374C3F8A5B73367A2
:1038B000B500FD530D8B79E7B7877F7F9387F7F7C7
:1038C00010419441B372F6003363F600BE92B3E246
:1038D00062006397720C6318D6065041D441B372EC
:1038E000F6003363F600BE92B3E262006398720A98
:1038F000631BD60410459445B372F6003363F6009B
:10390000BE92B3E262006391720A631ED602504512
:10391000D445B372F6003363F600BE92B3E26200A0
:10392000639A72086311D60210499449B372F60083
:103930003363F600BE92B3E26200639372085105EE
:10394000D105E30FD6F61317060193970601631C02
:10395000F7001357060193D706013305F740937517
:10396000F50F91E982804183C1833305F740937558
:10397000F50F91E182801377F70F93F7F70F330577
:10398000F74082800346050083C6050005058505CE
:103990006313D60065FA3305D64082801105910580
:1039A000E312D6FE014582802105A105E31CD6FC69
:1039B000014582803105B105E316D6FC01458280C0
:1039C0004105C105E310D6FC01458280130101FECB
:1039D000232E8100130401022326A4FEB7670000F2
:1039E000138787518327C4FE23A0E7008327C4FEE3
:1039F00023A20700130000000324C10113010102E8
:103A000067800000130101FE232E810013040102D0
:103A10002326A4FE93070000138507000324C10199
:103A20001301010267800000130101FE232E8100B3
:103A3000130401022326A4FE130000000324C10185
:103A40001301010267800000130101FE232E110003
:103A5000232C8100130401022326A4FE8327C4FE25
:103A600013850700EFF09FF6B767000013874746FE
:103A70008327C4FE23A0E7008327C4FE1307803EEC
:103A800023A4E700130000008320C1010324810167
:103A90001301010267800000130101FE232E1100B3
:103AA000232C8100130401022326A4FE9387050022
:103AB00013070600A305F4FE930707002305F4FE91
:103AC0008327C4FE13850700EFF01FF8B7670000D7
:103AD000138707448327C4FE23A0E7008327C4FE7F
:103AE000238807008327C4FE0347B4FEA388E700AA
:103AF0008327C4FE0347A4FE2389E70013000000C8
:103B00008320C101032481011301010267800000A9
:103B1000130101FE232E8100130401022326A4FEBB
:103B2000B76700001387074D8327C4FE23A0E70073
:103B3000130000000324C10113010102678000008B
:103B4000130101FD23261102232481022322910265
:103B500023202103232E310113040103232CA4FC71
:103B6000232EB4FC032984FD0327C4FDB70700807E
:103B700093C7F7FFB379F70093041000B76700000D
:103B800003A6074183A64741130509009385090051
:103B9000EF2000439307050063940702B767000016
:103BA00003A6074183A64741130509009385090031
:103BB000EF10807D930705006354F000930400002C
:103BC00093F7F40F93C7170093F7F70FB337F0008D
:103BD00093F7F70F138507008320C10203248102A6
:103BE00083244102032901028329C1011301010336
:103BF00067800000130101FE232E1100232C810099
:103C0000232A9100130401022324A4FE2326B4FED8
:103C100093041000032684FE8326C4FE032584FE3D
:103C20008325C4FEEF20C039930705006394070085
:103C30009304000093F7F40FB337F00093F7F70FF6
:103C4000138507008320C1010324810183244101DE
:103C50001301010267800000130101FE232E810081
:103C6000130401022326A4FE8327C4FE83A7870032
:103C7000138507000324C1011301010267800000BE
:103C8000130101FE232E8100130401022326A4FE4A
:103C90008327C4FE83A70700138507000324C101FF
:103CA0001301010267800000130101FE232E1100A1
:103CB000232C8100232A9100130401022326A4FE51
:103CC0002324B4FE832784FE639607009307000035
:103CD0006F0080038327C4FE83A7070093874700F4
:103CE00083A40700032584FEEF20E06B9307050003
:103CF00013860700832584FE0325C4FEE7800400A5
:103D00009307050013000000138507008320C101FD
:103D10000324810183244101130101026780000013
:103D2000130101FE232E1100232C81001304010234
:103D30002326A4FE2324B4FE2322C4FE8327C4FE2C
:103D400083A707009387470083A70700032644FE45
:103D5000832584FE0325C4FEE78007009307050042
:103D6000138507008320C10103248101130101028F
:103D7000678000009307400063E4B704B767000062
:103D80009387C75393952500B385F50083A7050056
:103D900067800700B717004003A7470B1345F5FFDF
:103DA0003377A70023AAE70A03A7070B3377A700F7
:103DB00023A8E70A03A7070A3375E50023A0A70A8B
:103DC00067800000B717004083A6470B1347F5FF35
:103DD000B3F6E60023AAD70A83A6070B33E5A600AD
:103DE00023A8A70A83A6070A3377D70023A0E70AE8
:103DF00067800000B717004003A7470B3367A70091
:103E000023AAE70A03A7070B1345F5FF6FF01FFA74
:103E1000B717004083A6470B1347F5FF3377D7004A
:103E200023AAE70A03A7070A3365A7006FF01FF963
:103E3000B717004003A7470B3367A7006FF05FFE7B
:103E40009307400063E4B704B76700009387075502
:103E500093952500B385F50083A7050067800700CB
:103E6000B717004003A7470D1345F5FF3377A700A9
:103E700023AAE70C03A7070D3377A70023A8E70CB5
:103E800003A7070C3375E50023A0A70C678000008B
:103E9000B717004083A6470D1347F5FFB3F6E600BA
:103EA00023AAD70C83A6070D33E5A60023A8A70CE9
:103EB00083A6070C3377D70023A0E70C67800000A8
:103EC000B717004003A7470D3367A70023AAE70CE5
:103ED00003A7070D1345F5FF6FF01FFAB717004052
:103EE00083A6470D1347F5FF3377D70023AAE70CC6
:103EF00003A7070C3365A7006FF01FF9B717004041
:103F000003A7470D3367A7006FF05FFEB7170040A8
:103F100083A78700130101FF232611009395070152
:103F200093F7070493D505016390070293F5F50114
:103F30003755E80113050580EFF01F858320C10088
:103F4000130101016780000093F7050C13070004BB
:103F50006398E70093F5F50137459C1C6FF09FFDD2
:103F600037850000130505D06FF05FFD130101FEDA
:103F7000232E11002326A100EFF05FF993172500EF
:103F80008325C100B387A7009397170013D5370087
:103F9000EFF01F809305A00013055500EFF04FFFD1
:103FA0008320C1011315050113550501B7370040E2
:103FB0002396A74013010102678000001315050135
:103FC0001355050117C3FF1F670003611305800424
:103FD00017C3FF1F670043100111C1473EC41C41B6
:103FE00022CC32849C4F104206CE02C002C202C6CE
:103FF0008A868297924719470145998B6395E70016
:10400000824705451CC0F240624405618280054537
:104010006313C7001945828097270000938747588C
:104020001CC185A4411122C406C62A84F537228505
:104030002244B240A1454101F9A85C41CC416383CF
:10404000B70283C607001307A0020145638EE6008E
:1040500041113E8506C6EFF09F85B240133515002D
:1040600041018280054582808280011122CC26CACE
:104070004AC806CEAA842E8432C636897D3F19ED01
:104080008D4763ED27011C40228562443246F24091
:104090004249DC4BA685D24405618287F2406244E6
:1040A000D244424905618280011122CC26CA4AC805
:1040B0004EC652C406CEAA89B284368A3A8946844C
:1040C000631F0701BE85953F19C904C4F2406244CD
:1040D000D2444249B249224A014505618280D285D3
:1040E0004E85A13F65D585472320240144C05CC48B
:1040F000F1BF411122C426C206C6B2843684353FC0
:1041000011C5A1475CC4994704C05CC0B2402244B9
:104110009244410182808DAA411106C60295EF208A
:10412000600217D5FF1F0325E5A50F00F00F828061
:10413000411106C6FD37CD37411106C6D53F972739
:1041400000009387E74B1CC1C1BD411122C406C6C4
:104150002A84F53722852244B240B145410165BF2A
:10416000011122CC26CA06CEAA842E84631BC70066
:10417000B6853AC632C436C2C9359246224632475F
:1041800011E98844A28562441C41F240D2449C5308
:1041900005618287F2406244D244194505618280FC
:1041A00079714AD02E89B68522D426D24ECE52CCF1
:1041B00056CA5AC85EC606D6AA8BB289B68A3A844F
:1041C0003E8B428AC684953D05CD80C023A2340132
:1041D000634409024A94994763038A008547DCC413
:1041E000B250225492540259F249624AD24A424B86
:1041F000B24B014545618280F957E313F9FEF9BFDF
:1042000063194401DA855E850D3D01C523A434019F
:10421000C1BF03A58B00228722541C41B250B24B70
:1042200003A3C701A68852889254624ADA87D686C9
:10423000424BD24A4E86CA85F249025945610283F1
:10424000011122CC26CA4AC84EC606CEAA892E849F
:10425000B2843689793D19ED03A58900A2856244AF
:104260001C41F240B2499C4FCA8626864249D2443C
:1042700005618287F2406244D2444249B2490561F5
:1042800082808280014582806F10B06D368EB28848
:104290002A832E88C5EE63F0C510C167636AF61ADB
:1042A000B70700016361F63613578601614E972701
:1042B000000093872740BA9783C7070013070002BF
:1042C0003E9EB307C741630CC7013398F500335EC8
:1042D000C501B318F60033680E013313F50093D50A
:1042E00008013355B80293960801C1829357030120
:1042F0003377B8023386A60242073368F700637A41
:10430000C80046989307F5FF63641801636CC830D2
:104310003E853308C8403356B802420313530301A5
:104320003378B802B386C602420833686800637BFC
:10433000D80046989307F6FF636518017916636302
:10434000D8003E864205518D8145828063F5D500B7
:10435000814501458280C16763E5F610B70700011A
:1043600063E8F62813D886016147972700009387F2
:104370006734C29703CE0700930700023A9EB38EBC
:10438000C741639EC71763E4B6283336C50013459B
:1043900016008145828001E68547B3D8C702C16710
:1043A00063EFF808B707000163EBF82413D788011F
:1043B000614E972700009387E72FBA9783C60700BF
:1043C00093070002369EB382C7416394C70B139FC5
:1043D00008013387154193DF0801135F0F018545FD
:1043E000935703013355F7033377F703B306E50318
:1043F0004207D98F63FAD700C6971307F5FF63E426
:10440000170163E4D7223A85958F33D6F703420329
:1044100013530301B3F7F703330FE603C207B3E700
:10442000670063FBE701C6971307F6FF63E5170113
:10443000791663E3E7013A864205518D828093073E
:10444000F00F4687E3F717F713D78800214E95B78B
:104450009307F00F3287E3FCC7E413578600214E21
:10446000B9B59307F00F63F9D71813D88600214721
:10447000EDBDB398580033D6C50193DF0801B35E94
:10448000F603139F0801135F0F0133975500335E46
:10449000C5013367EE009355070133135500B3761A
:1044A000F603B307DF03C206CD8E63FBF600C696A4
:1044B0001386FEFF63E6161763F4F616F91EC6961A
:1044C0009D8EB3D7F603131E0701135E0E01B3F6DC
:1044D000F6033306FF02139706013367C701637BB8
:1044E000C70046979386F7FF636817136376C71272
:1044F000F917469793950E01118FDD8DD5B5B357FA
:10450000C601B396D601DD8E33D3C50113DF060194
:10451000B358E3031397060141833398D501335E03
:10452000C50133680E01935708013316D601337362
:10453000E303B30517034203B367F30063FBB7005C
:10454000B6971383F8FF63EBD70C63F9B70CF91830
:10455000B6978D8F33D3E703420813580801B3F79A
:10456000E703B3056702C20733E80701637BB800BE
:1045700036989307F3FF636FD808637DB808791303
:104580003698C208416FB3E868009307FFFF33F71E
:10459000F80013D30801F18F4182330EF70233087C
:1045A000B8403307C70293560E01B307F3023E9794
:1045B00036973306C3026373F7007A9613530701E5
:1045C0001A966363C8026305C800468581458280E8
:1045D000C166FD16758F93170701337EDE00331514
:1045E000D501F297E373F5FE1385F8FF81458280CC
:1045F00013D80601414795BB36880147BDB313D791
:104600000801414E7DB313570601414E4DB181451E
:10461000054582803E83B5B7B687E9BD9A8815BF48
:10462000B28E79BD79154698EDB17915C697E9BB7B
:10463000B7071000FD170111B3F8B70033F8D70022
:1046400013DE460193D745011353D60122CC4AC845
:104650008E081357D5010E0813D4F50113F9F77F0F
:1046600093D5F601137EFE7F06CE26CA4EC633686A
:104670000301B3661701931E350013133600B30709
:10468000C9416309B4146354F012630C0E18370661
:1046900080001307F07F3368C8006301E92A13071D
:1046A00080036348F7307D476343F74013070002F8
:1046B0001D8FB314E8003356F3003313E300D18C9D
:1046C000333360003358F800B3E46400B386064126
:1046D000B3849E40B3B99E00B3893641B7078000CA
:1046E00033F7F9006309071CFD17B3F9F90063807C
:1046F00009224E85EF10B01D930785FF13070002B6
:104700001D8F33D7E4003398F900B3690701B394E0
:10471000F40063CD2721B387274113871700FD4697
:1047200063C7E61693070002998FB3D6E400B394EB
:10473000F400B397F900D58FB3349000DD8CB3D972
:10474000E900014993F7740081CF93F6F400914793
:104750006388F60093874400B3B49700A699BE849B
:10476000B7068000B3F6D900638B061493071900CF
:104770001307F07F6388E718370780FF7D1733F74B
:10478000E9009318D7018D802607B3E8980031839C
:1047900093F7F77FD2077E045D8FF240418F62442A
:1047A000D2444249B2494685BA8505618280C1CB6F
:1047B000B3072E416318092433E7D601630D073888
:1047C0001387F7FF630307481305F07F638DA73E48
:1047D000BA8781A46356F018630D0E08370680006F
:1047E0001307F07F3368C800630AE91413078003D6
:1047F0006348F70E7D47635BF730938407FE13072A
:10480000000233569800638AE70013070004B307D9
:10481000F7403318F80033630301B3346000D18CE0
:10482000E1A033676800630B07181387F7FF63067F
:1048300007361306F07F6383C710BA878DB5130759
:1048400019001377E77F6310072033E7D601B368B9
:104850006800631C0930630D073C6393084013171D
:1048600035000D839398D601B3E8E80013D73600DE
:104870009DA033676800630307141387F7FF63097C
:10488000071E1306F07F6386C732BA8785B7851780
:1048900093060002B3D7F900630AD7009306000419
:1048A0003387E640B399E900B3E43401B3349000B0
:1048B000DD8C8149014993F77400E39807E88D8006
:1048C0009398D901B3E8140113D73900CA87930626
:1048D000F07F638DD7063207318393F7F77F5DBD95
:1048E00033686800B3340001F694B3B9D401B699C3
:1048F000B7078000B3F7F900DDDF05099307F07F04
:104900006318F9189307F07F0147814861B5268540
:10491000EF10E07B930785017D47E351F7DE9309B4
:1049200085FFB39934018144E3D727DF370780FF40
:104930007D173309F940B3F9E90029B50E059398BD
:10494000D6010D81B3E8A80013D7360033E7E8009D
:1049500055DB01449307F07F3707080081481DBDF0
:10496000BDC7B3072E4163050918B70580001307BB
:10497000F07FCD8E6304EE2613078003634BF7268A
:104980007D47634FF734130700021D8FB394E60091
:1049900033D6FE003397EE00D18C3337E000B3D727
:1049A000F600D98C3E989A94B3B96400C299728982
:1049B00081B733686800B334000119BB0E059398C2
:1049C000D6010D81B3E8A80013D7360009B79305C7
:1049D000190013F7E57F631D071433E7D60163134E
:1049E00009246300072C336768006316072C9318AB
:1049F00035001397D60193D83800B3E8E80013D7F1
:104A00003600D1BD370580001307F07FC98E630CD7
:104A1000EE1A130780036340F70C7D476340F71ECF
:104A2000130700021D8FB394E60033D6FE00B39E39
:104A3000EE00D18CB33ED00133D7F600B3E4D401FD
:104A40003308E84069A8B3846E4033B79E00B38949
:104A50000641B389E9403707800033F7E900631462
:104A60000712B3E83401E39408C801470144A5B52F
:104A7000B3846E0033870601B3BED401B309D701F6
:104A8000B7078000B3F7F9000549E38607E2094953
:104A9000370780FF7D1793D71400B3F9E9008588A5
:104AA000DD8C9397F901DD8C93D9190061B993845A
:104AB00007FE1307000233569800638AE7001307C6
:104AC0000004B307F7403318F80033630301B3342D
:104AD0006000D18CF5BEB3E4D601B3349000B304CA
:104AE0009340B3399300B309384172892E84FDB6DF
:104AF00033E7D601630D07181387F7FF6306072016
:104B00009305F07F638CB70CBA87BDB5130700021D
:104B10001D8FB314E8003356F3003313E300D18C38
:104B2000333360003358F800B3E46400C2966DBBC1
:104B30009307F07FE388F5DCB3876E00B3B9D70144
:104B400033870601BA999394F9018583DD8C93D953
:104B500019002E898DB30E069318D8010D82B3E883
:104B6000C800135738002E849DB331E3638C081AB4
:104B7000931636009318D8018D82B3E8D8001357E6
:104B800038002E84E1B3B304D3413308D840B3379F
:104B90009300B309F8402E8499BEB3846E403387E6
:104BA0000641B3BE9E00B309D741054905BEE39255
:104BB00008DA931735009398D6018D83B3E8F8008F
:104BC00013D7360061B3931736009318D8018D833D
:104BD000B3E8F800135738002E848DBB93183600C5
:104BE00093D838009317D801B3E8F800135738006A
:104BF000B1BBB3E4D601B334900075B3938407FE20
:104C00001306000233D79600638AC7001306000418
:104C1000B307F640B396F600B3EEDE00B334D0012E
:104C2000D98C75BD45DF33686800E31408D251B7ED
:104C3000E38D08E2131736000D839318D801B3E80B
:104C4000E8002E841357380079B1B304D3413307F9
:104C5000D840B3379300B309F7402E840549BDBC53
:104C6000B3846E4033B79E00B3890641B389E940EF
:104C70003707800033F7E9004DC3B304D34133074E
:104C8000D840B3379300B309F7402E8465BC13179F
:104C900036000D839318D801B3E8E80013573800A5
:104CA0003DB1131736000D839318D801B3E8E8001F
:104CB000135738000DB1B3846E0033870601B3BEBD
:104CC000D401B309D701B7078000B3F7F900E38433
:104CD00007BEB70780FFFD17B3F9F9000549E1BE2C
:104CE000138707FE1306000233D7E600638AC70066
:104CF00013060004B307F640B396F600B3EEDE00E9
:104D0000B334D001D98C45B1B3846E00338706012A
:104D1000B3B76400B309F700A5B3B3E83401E38681
:104D200008D451BE01449307F07F370708009DB4B3
:104D3000397193D7450122DC26DA56D25ECE9394A0
:104D4000C50006DE4AD84ED652D45AD062CC93F76C
:104D5000F77F2A84B28BB18093DAF501638F071253
:104D60001307F07F638CE716135BD5018E04B364E1
:104D70009B00370B800033EB6401131A35009389D5
:104D800017C08144014C93D746011394C60093F792
:104D9000F77F318013D9F601F1C71307F07F6389DC
:104DA000E70A1317340013D4DB01598C938717C01B
:104DB00037078000598C93953B00B389F940014532
:104DC0003D47B3C62A016363971A172600001306EE
:104DD00066868A04B29498403297028756895A842C
:104DE000D28562858547630EF516630905128947EA
:104DF0006307F53E8D476313F51281469307F07FF5
:104E0000370608000144F2502285D20762541399F4
:104E1000F601D18FB3E72701D2544259B259225A31
:104E2000925A025BF24B624CBE85216182809307ED
:104E3000F07F01460144C1BF630C072E0546198E61
:104E40009307800363DFC73C81470146014465BF88
:104E5000B365740193891980CDED93E42400014476
:104E60000945B9BFB3657401C5C1630E043022851D
:104E7000EF10E025130755FFF547930585FF998F40
:104E80003314B400B3D7FB005D8CB395BB00B307FC
:104E900035019389373F014525B733EBA400630003
:104EA0000B0636C66380042C2685EF104022B246DE
:104EB000930755FF754B130A85FF330BFB40B394E3
:104EC0004401335B6401336B9B00331A4401930745
:104ED000D0C0B389A7408144014C75B533EBA40021
:104EE00063180B00014AA1449309F07F094C61BD8E
:104EF000268B2A8AB1449309F07F0D4C69B5014A8B
:104F000091448149054C41B593E4140001440545A1
:104F100045BD93E43400DE850D455DB51387F93F4B
:104F2000CA86E35BE0F093F775006390072C8D81F0
:104F3000B7070001E18F99C7B70700FFFD177D8C08
:104F4000138709409307E07FE3C3E7EE93179400CC
:104F50001316D4013364B60013D6C7009377F77FD6
:104F60005DB5CA8681470146014471BD636064270F
:104F7000630C8B245287FD19DA84014A931784004D
:104F800093D8070133D4140313D585015D8D131312
:104F90000501135303011356070113988500B3F459
:104FA0001403B3078302C204D18C63FBF400AA94F8
:104FB0001306F4FF63E5A42663F3F4267914AA9498
:104FC0009D8CB3D7140342074183B3F41403330613
:104FD000F302C204D98C63FBC400AA941387F7FFC1
:104FE00063EDA42263FBC422F917AA944204C163AF
:104FF0005D8C138EF3FFB375C401135F0401935EE0
:105000000801337EC801B302CF033387C440B30F16
:10501000BE02B387BE0213D60F019697B297330F25
:10502000DF0363F357001E9FC165FD1513D607010B
:10503000ED8FC207B3F5BF007A96AE976367C716C8
:105040006303C716B307FA40118F333AFA00330AE5
:1050500047411387F93F6304450DB3551A0313D62F
:105060000701337A1A03330FB302420A336A460147
:10507000637BEA012A9A1386F5FF636BAA206379A2
:10508000EA21F9152A9A330AEA4133561A03C2076C
:10509000C183337A1A033303C302420AB3E74701D9
:1050A00063FB6700AA979308F6FF63E1A71E63FFFF
:1050B000671C7916AA97C205D18D9398050193DFD5
:1050C000050193D80801338FC803B3876740B388BD
:1050D0001E0313560F01338ECF03F2984696B38EFC
:1050E000FE036374C601C168C69E41637D13935875
:1050F0000601337666004206337F6F00C69E7A96BD
:1051000063F2D711AA979388F5FF63EDA71A63ECB2
:10511000D719638DD71BC68593E5150019B5814551
:105120008547634FE00CFD55E31A07D0930910C083
:1051300005469387E9413317F40033D5C500B3978B
:10514000F500B337F000B365A700DD8D93F7750068
:105150003354C400638B071093F7F5001147639035
:10516000E71021A2EF00B0769307550171472A8B13
:10517000B24613050502E35FF7D293048BFF331B9E
:105180009400014AA9B35E85EF00707413075501BE
:10519000F146AA8713050502E3D0E6CEE117814563
:1051A0003394FB00EDB1E37FFAE8429AB3350A018C
:1051B000AA952E979305F4FF637BE5046361C70C02
:1051C000630DE60A2E84BDBDE366BADA93571A0072
:1051D0001317FB0193541B005D8F7E0A45B3CA86EB
:1051E0009307F07F0146014439B993F7F500114662
:1051F000E38FC7D293B7C5FF910593C717008D8181
:105200003E943DB3E39AD7F1E30D06D0E5BDE31B31
:10521000E5FAE3750AFB2E8435B5BA87C1BB328443
:1052200045B3FD47E3D7C7F085573387E74093077A
:1052300000023357E4006307F6009387E943331411
:10524000F400C18DB335B000D98D13F4750001465B
:1052500039C493F7F50011470144638DE702938742
:105260004500B3B5B7002E94BE85B7078000E18F27
:1052700095C385470146014479B6E375FAF4429A2D
:10528000B3350A01AA9579142E976DBB468625B5CC
:10529000B285D5BB9317940013D6C70076048D81D1
:1052A0004D8C81478DB69318180033B8080142958C
:1052B000AA97F9154688E391D7E7E30406C793E573
:1052C000150085B1C685E38AD7FFB9B5E36DC8FC83
:1052D000C685E31606FFB1B113D84501B707100024
:1052E000FD1793D846011378F87F1303F07F33FE40
:1052F000B7002A87AA8EFD81328FF58F93F8F87F49
:1053000013D5F601630F680063826802631F080209
:105310003367EE00639808025D8E0DE6014509EFE4
:105320008280B366EE00A9EA639108035D8E29E6E8
:10533000630808006380A5020545FDD17D55828084
:105340003367EE0065FB7DD98280E39508FE5D8EB4
:1053500075F2DDB763CD0801E34718FFE3EEC7FD43
:10536000630EFE006378FE00F1D92E85828079F508
:10537000054582800145828079558280E36EDFFB9E
:105380000145E3E3EEFF828013D84501B707100023
:10539000FD1793D846011378F87F1303F07F33FE8F
:1053A000B7002A87AA8EFD81328FF58F93F8F87F98
:1053B00013D5F601630F6800638268026311080465
:1053C0003367EE00639208025D8E19EE014505E336
:1053D0008280B366EE0085E2639308035D8E01EE82
:1053E0003367EE006313080009CB638FA500054502
:1053F000E5D17D5582800945828065DD8280E39616
:1054000008FE5D8E7DF2E5B763D508017DF10545A7
:105410008280E34418FFE3ECC7FD6309FE00637577
:10542000FE00E1D92E85828001458280E361DFFDA7
:105430000145E3E8EEFF8280797193D7450122D4DC
:105440004AD052CC5AC85EC61394C50006D626D29E
:105450004ECE56CA62C493F7F77F2A89B28B368A3A
:10546000318013DBF501638F072C1307F07F638610
:10547000E730131734001354D501598C37078000D7
:10548000598C93143500938A17C08149014C935766
:105490004A011319CA0093F7F77F1359C900135A29
:1054A000FA01638507261307F07F6381E72E131740
:1054B000390013D9DB013369E900938717C0370737
:1054C00080003369E90093953B00BE9A81483345DB
:1054D0004B01BD472A8813871A0063EC370717165C
:1054E0000000130626198A09B29983A60900B2960C
:1054F000828652884A84AE84468C8947630EFC02B9
:105500008D476301FC04854742856316FC1A0144FC
:105510000147814452047E05598C498CB250A285C2
:1055200022540259F249624AD24A424BB24B224CAF
:10553000268592544561828042851304F07F01479D
:105540008144C9BF01451304F07F37070800814437
:10555000D1B7416E9306FEFF93D7040113D6050120
:10556000F58CF58DB386B402B388B70213D3060168
:105570003308960246984293338FC7026373130130
:10558000729FC16E9388FEFF337813019352090115
:10559000B3F61601337919014208B388240336980B
:1055A00013530301B386270313DE0801B384920269
:1055B000B694F294B387570263F3D400F697C169A7
:1055C0009386F9FF935F0401B3FED400758CC1800C
:1055D000338EF400B3838502B3F8D800C20EC69EA2
:1055E0007693B307860293D80301B385BF02AE97C3
:1055F000BE983306F60363F3B8004E96C1649386F3
:10560000F4FFB3F7D800B3F3D30093D80801C2076F
:10561000B298B30589029E9733892F0393D605016B
:10562000338482024A943694B38FF2036373240165
:10563000A69FC166FD163376D4004206ED8E3696DF
:10564000B305E301B3BED501B306C601BE95338FE2
:10565000D601B3B7F50033061F013303F600B3B626
:10566000C601B33EDF014180B337F300B3E6D60194
:10567000B3381601A296B3E7F800BE96939495004E
:10568000FE9613547301A606B3E40401558CB3349B
:105690009000DD81B7070001CD8C2603E18FB3E4D4
:1056A00064006387072093D7140085889316F4015C
:1056B000DD8CD58C05809307F73F635DF01093F682
:1056C000740081CE93F6F40011466388C600938679
:1056D0004400B3B496002694B684B7060001E18E68
:1056E00099C6B70700FFFD177D8C93070740130786
:1056F000E07F634AF71A13D734009314D4012604C9
:10570000D98C1357C40013F4F77F29B5B365790119
:10571000C9CD630B090E4A85EF00701B130755FFB7
:10572000F547930585FF998F3319B900B3D7FB006F
:1057300033E92701B395BB00B387AA40938AD7C04A
:10574000814871B3B364A400C9C079CC2285EF004D
:105750001018130755FFF547930485FF998F3314ED
:105760009400B357F9005D8CB31499009307D0C02F
:10577000B38AA7408149014C19BBB364A400A1E0DE
:105780000144A149930AF07F094C11B3B365790133
:10579000938AFA7F85E193E929000149894805BB8D
:1057A00089475A88E31EFCD441BB93E9190001499B
:1057B000854831BB93E93900DE858D4809BBAA8451
:1057C000B149930AF07F0D4CD9B101449149814A06
:1057D000054C75B985469D8EBDE71307E741B39724
:1057E000E4003317E400B3D4D400B337F000D98C0D
:1057F000DD8C13F77400B357D40051CF13F7F400C6
:1058000091466314D70841A85E85EF00500C13073A
:105810005501F146AA8713050502E3D3E6F0E11727
:1058200081453399FB0009BFEF00700A130755014A
:10583000F146AA8713050502E3DFE6F0E11781448C
:105840003314F90025B713068003E342D6CC7D4616
:10585000E355D6F80556B307F64013060002B357D2
:10586000F4006387C6001307E7433317E400D98CBD
:10587000B3349000DD8C93F774000147A1C313F794
:10588000F400914681476307D70213874400B3347D
:105890009700A697BA84370780007D8F01CF054413
:1058A0000147814485B91304F07F014781449DB1CC
:1058B000568711B5139797003183F6078D80DD8CDD
:1058C000014489B9370810007D180111B377B80079
:1058D00013D7450113D346013378D8008E07135EE2
:1058E000D50122CC4AC84EC61379F77F0E0813772C
:1058F000F37F9359D60106CE26CA1303F07F13D443
:10590000F501931E3500B365FE00FD8233E8090101
:10591000131E3600B307E9406304671693C61600EA
:105920006302D41A635BF012631407163367C8016D
:10593000630E07321387F7FF630207509306F07F69
:105940006380D716BA8713078003634CF7307D470F
:105950006345F740130700021D8FB314E800B356E8
:10596000FE00331EEE00D58C333EC0013358F800E4
:10597000B3E4C401B3850541B3849E40B3B99E002E
:10598000B389354137078000B3F7E900638D071EFF
:105990007D17B3F9E900638709244E850D2F93071E
:1059A00085FF930500029D8DB3D5B400B399F9002E
:1059B000B3E93501B394F40063C42725B3872741C5
:1059C000938517007D47634CB718930700028D8FAE
:1059D00033D7B400B394F400B397F900D98FB3343C
:1059E0009000DD8CB3D9B900014993F7740081CFE1
:1059F00093F6F40091476388F60093874400B3B4AC
:105A00009700A699BE84B7068000B3F6D9006380DC
:105A10000618130719009307F07F0588630FF71A1C
:105A2000370880FF7D1833F809019318D8018D805D
:105A30002608B3E898001358C8009377F77FD20779
:105A40007E04B3E70701F240C18F6244D244424969
:105A5000B2494685BE8505618280DDCBB30727410B
:105A6000631D092633E5D5016307053A1385F7FF62
:105A7000630005469308F07F638C173DAA87B5A4A1
:105A8000B368C801E38C08E86304D418E357F0FC5A
:105A9000B70680001307F07F3368D800E315E9EA02
:105AA0000E059398D5010D81B3E8A8008D81B3E56B
:105AB000B8006383051201449307F07F370808009C
:105AC0008148B5BF6356F0142DCFB7068000130789
:105AD000F07F3368D800E305E9FC13078003634BCC
